:020000040800F2
:1000000028070020DD0100085902000855020008F9
:1000100057020008510200086903000800000000B0
:100020000000000000000000000000004501000882
:1000300053020008000000008901000805030008C1
:10004000F7010008F7010008F7010008F7010008B0
:10005000F7010008F7010008F7010008F7010008A0
:10006000F7010008F7010008F7010008F701000890
:10007000F7010008F7010008F7010008F701000880
:10008000F7010008F7010008F7010008F701000870
:10009000F7010008F7010008F7010008F701000860
:1000A000F7010008F7010008F7010008F701000850
:1000B000F7010008F7010008F7010008F701000840
:1000C000F7010008F7010008F7010008F701000830
:1000D000F7010008F7010008F7010008F701000820
:1000E000F7010008F7010008F7010008F701000810
:1000F000F7010008F7010008F7010008F701000800
:10010000F7010008F7010008F7010008F7010008EF
:10011000F7010008F7010008F7010008F7010008DF
:10012000F7010008F7010008F7010008F7010008CF
:10013000DFF80CD000F07AF8004800477705000897
:1001400028070020224B19680868B0E8F00F80F3F8
:100150000988BFF36F8F4FF0000080F311884EF0D5
:100160000D0E70470000000006480068006880F32C
:10017000088862B661B6BFF34F8FBFF36F8F00DFA1
:1001800000BF00BF08ED00E0EFF30980BFF36F8F01
:100190000F4B1A6820E9F00F106008B54FF05000BF
:1001A00080F31188BFF34F8FBFF36F8F00F012FA07
:1001B0004FF0000080F31188BDE808401968086816
:1001C000B0E8F00F80F30988BFF36F8F704700BF6E
:1001D00000000020EFF305807047000006488047CC
:1001E00006480047FEE7FEE7FEE7FEE7FEE7FEE71C
:1001F000FEE7FEE7FEE7FEE719030008310100080D
:1002000030B50B46014600202022012409E021FAE6
:1002100002F59D4205D303FA02F5491B04FA02F5E3
:100220002844151EA2F10102F1DC30BD064C074D39
:1002300006E0E06840F0010394E8070098471034B6
:10024000AC42F6D3FFF778FF90070008B00700082C
:10025000FEE77047FEE7FEE7704700000CB500229E
:10026000264800920192016841F4803101604FF408
:10027000A063016801F4003101910099491C0091CB
:10028000019911B900999942F3D10168890333D5D5
:10029000012101911A490A6842F010020A600A68B5
:1002A00022F003020A600A6842F002020A60416812
:1002B000416041684160416841F48061416041684A
:1002C00021F47C114160416841F4E811416001680A
:1002D00041F08071016001688901FCD5416821F01D
:1002E00003014160416841F0020141604168C1F38E
:1002F00081010229FAD10CBD01920CBD001002400F
:100300000020024010B500F0BDF9012803D0BDE87F
:10031000104000F0A1B910BD0F4810B5016841F0C0
:100320000101016041680D4A1140416001680C4AB9
:1003300011400160016821F480210160416821F4CD
:10034000FE0141604FF41F018160FFF787FF0549FF
:100350004FF00060086010BD001002400000FFF880
:10036000FFFFF6FE08ED00E0FEE700000FB4054BCE
:1003700010B503A9044A029800F018F810BC5DF803
:1003800014FB0000650500083C00002002E008C8DE
:10039000121F08C1002AFAD170477047002001E0FF
:1003A00001C1121F002AFBD1704700002DE9FF4F49
:1003B0008BB09A460F460546002606E025280BD04E
:1003C00052460D9990476D1C761C28780028F5D16F
:1003D0000FB03046BDE8F08F0024A04601226049EE
:1003E00000E0044315F8013F203B02FA03F0084205
:1003F000F7D128782E2817D115F8010F44F00404FE
:100400002A280ED06FF02F022878A0F13001092998
:100410000AD808EB880102EB410100EB01086D1CD2
:10042000F2E757F8048B6D1C287869283ED006DC6B
:100430000028CDD063280BD0642804D136E073287F
:1004400010D075284BD052460D999047761C85E008
:1004500017F8040B8DF8000000208DF80100E94624
:10046000012003E057F8049B4FF0FF3061074FF085
:10047000000401D40AE0641C44450DDA8442FADB2E
:1004800019F804100029F6D106E0641C8442FCDB54
:1004900019F804100029F8D1264404E019F8010BDA
:1004A00052460D999047641EF8D257E001CF4FF0A5
:1004B0000A0B002802DA40422D2102E0210504D572
:1004C0002B218DF82410012103E0E10705D0202124
:1004D000F7E70DF1200908910CE00021F9E701CFC1
:1004E0004FF00A0BF9E75946FFF78AFE01F1300297
:1004F00009F8012D0028F6D1ADEB090000F1200B21
:10050000600701D44FF00108D84502DDA8EB0B00CD
:1005100000E000208046002406E009A85246005D65
:100520000D999047641C761C08988442F5DB04E022
:10053000302052460D999047761CB8F10001A8F181
:100540000108F5DC05E019F8010B52460D999047BA
:10055000761CBBF10001ABF1010BF4DC6D1C34E740
:100560000928010038B504468DF8000069460320CB
:10057000ABBE204638BDFEE70648416B096829B18D
:10058000416BC968C9684968816270474FF0FF31A3
:10059000FAE7000000000020D0E9013201699A600A
:1005A000D0E901235A604A68824201D182684A60D8
:1005B000002202610868401E0860704742684A6075
:1005C00093688B6093685960916008610168491C69
:1005D0000160704770B5134D286B10B10120E861C0
:1005E00070BD0020E86128690F4EB0FA80F0C0F1BC
:1005F0001F0000EB800456F8240028B940F6F622CC
:100600000AA111A0FFF7B2FE06EB840000F1080278
:10061000416849684160914201D149684160C868B8
:10062000286070BD00000020400000202E2E5C35A8
:100630002E4672656552544F535C7372635C7461ED
:10064000736B732E630000004572726F723A2573EC
:100650002C25640D0A00000010B5502080F311888D
:10066000BFF34F8FBFF36F8F00F01AF818B1044932
:100670004FF080500860002080F3118810BD00000A
:1006800004ED00E00548416919B1006B18B1002084
:1006900070470120704702207047000000000020D2
:1006A0002DE9F0412D4F0026386B40B1B869401C50
:1006B000B861F86900B101263046BDE8F081FD68F7
:1006C0006D1CFD6011D1786B006828B140F6D9121D
:1006D00023A12AA0FFF74AFE786BB96B7963B86350
:1006E000386A401C3862FFF747FFB86ADFF89C8021
:1006F000854209D3786B006880B1786BC068C468A4
:10070000606885420DD2B8623868C06A00EB80012B
:1007100058F821000128CCD90126CAE74FF0FF3054
:10072000F1E7201DFFF738FFA06A18B104F11800A7
:10073000FFF732FFE06A01213A69814011433961D4
:1007400000EB800108EB8100211DFFF737FFE06A15
:100750003968C96A8842CDD30126CBE70000002062
:100760002E2E5C352E4672656552544F535C737263
:10077000635C7461736B732E630000004572726F6B
:10078000723A25732C25640D0A00000040000020F9
:10079000B007000800000020400000008C030008A3
:1007A000F007000840000020E80600009C03000855
:1007B0000000000000000000000000000000000039
:1007C0000000000000000000000000000000000029
:1007D0000000000000000000000000000000000019
:1007E0000000000000000000000000000000000009
:0400000508000131BD
:00000001FF
