:020000040800F2
:10000000809B0020E1010008130D0008590C000836
:10001000110D00080D0B0008611800080000000019
:10002000000000000000000000000000490100087E
:10003000890B0008000000008D0100080D0F00086A
:10004000FB010008FB010008FB010008FB010008A0
:10005000FB010008FB010008FB010008FB01000890
:10006000FB010008FB010008FB010008FB01000880
:10007000FB010008FB010008FB010008FB01000870
:10008000FB010008FB010008FB010008FB01000860
:10009000FB010008FB010008FB010008FB01000850
:1000A000FB010008FB010008FB010008FB01000840
:1000B000FB01000885100008FB010008FB01000897
:1000C000FB010008FB010008FB010008FB01000820
:1000D000FB01000855150008FB010008FB010008A2
:1000E000FB010008FB010008FB010008FB01000800
:1000F000FB010008FB010008FB010008FB010008F0
:10010000FB010008FB010008FB010008FB010008DF
:10011000FB010008FB010008FB010008FB010008CF
:10012000FB010008FB010008FB010008FB010008BF
:10013000DFF810D000F0E4FA00480047552100082D
:10014000AFF30080809B0020224B19680868B0E85C
:10015000F00F80F30988BFF36F8F4FF0000080F33A
:1001600011884EF00D0E7047000000000648006830
:10017000006880F3088862B661B6BFF34F8FBFF3A3
:100180006F8F00DF00BF00BF08ED00E0EFF30980D4
:10019000BFF36F8F0F4B1A6820E9F00F106008B59E
:1001A0004FF0500080F31188BFF34F8FBFF36F8F74
:1001B00002F008FD4FF0000080F31188BDE8084010
:1001C00019680868B0E8F00F80F30988BFF36F8FF3
:1001D000704700BF28000020EFF305807047000043
:1001E0000648804706480047FEE7FEE7FEE7FEE7D1
:1001F000FEE7FEE7FEE7FEE7FEE7FEE7210F000869
:10020000310100082DE9FE4F804681EA0300C00F4E
:100210000C46009021F0004123F00045B8EB0200AD
:10022000A94105D24046214690461C460B4602464F
:1002300023F00040104347D0270DC7F30A00C3F353
:100240000A510290401A019040286BDAC3F3130060
:1002500040F4801B0098924620B10023D2EB030AA1
:1002600063EB0B0B01985946C0F14002504600F079
:1002700098F906460D4650465946019A00F0A0F9F5
:1002800010EB08006141002487EA115284EAE77309
:100290001A4340D0009A62B3019A012A4FEA0752EA
:1002A00015DC001B61EB02014FF0004202EA07522D
:1002B000CDE90042001C41F5801132462B4600F08A
:1002C000A0F903B0BDE8F08F40462146F9E7001BD6
:1002D00061EB0201001C41F5801300185B412018FE
:1002E000A2F5001747EB030140EAD570B6196D413E
:1002F00011E06D084FEA360645EAC0754FEA07522D
:10030000001B61EB0201001C41F5801149084FEA16
:1003100030000019514132462B4603B0BDE8F04F82
:1003200000F060B90098012240000023D0EB0202E7
:1003300063EBE073009821464FEAE074B8EB0000ED
:1003400061EB0401E9E783F000435BE781F00041E2
:1003500058E72DE9FE4F81EA030404F0004421F040
:10036000004100944FF0000B23F0004350EA0104D9
:100370005ED052EA03045BD0C3F30A54C1F30A55BA
:100380002C44A4F2F3340194A0FB0254C1F31301F2
:1003900041F48011C3F3130343F4801301FB0244BF
:1003A00000FB034E840A970A44EA815447EA8357C4
:1003B000A4FB076802958D0A05FB07854FEA932C7D
:1003C00004FB0C542705029D4FEA065847EA1637EE
:1003D000B5EB08056EEB070C870E920E47EA811706
:1003E00042EA8312A7FB0201B6EB0B0164EB0004A7
:1003F0002B0D43EA0C335E1844EB1C50DA46514691
:10040000E7FB0201C5F313044FEA0B3343EA14532D
:100410004FEA0432019C43EA0603A4F10C0402945F
:10042000009CCDE900B400F0ECF803B0BDE8F08F1B
:1004300000200146F9E72DE9F04D81EA030404F0BC
:10044000004B21F0004514464FF0000A23F0004114
:1004500050EA050220D054EA01021DD0C5F30A5724
:100460000246C5F31303C1F31300C1F30A5640F467
:10047000801543F48013A7EB0608101BD64608F23C
:10048000FD3873EB050002D308F1010801E0921872
:100490005B41B8F1000F03DA00200146BDE8F08DA2
:1004A00000204FF48011064684460EE0171B73EBC4
:1004B000050705D3121B63EB050306434CEA010C49
:1004C00049084FEA300092185B4150EA0107EDD12C
:1004D00052EA030012D082EA040083EA05010843CD
:1004E00005D0101BAB4106D20122002306E00022FA
:1004F0004FF0004302E06FF0010253101AEB0600C8
:100500004CEB085110EB0A0041EB0B01BDE8F04D3C
:1005100000F068B830B50B460146002020220124C7
:1005200009E021FA02F59D4205D303FA02F5491BC1
:1005300004FA02F52844151EA2F10102F1DC30BDD7
:100540002DE9F05F0546002092469B468846064608
:10055000814640241BE0284641464746224600F09B
:10056000E1F853465A46C01A914110D31146184635
:10057000224600F016F82D1A67EB01084F46224676
:100580000120002100F00DF817EB00094E41201E5C
:10059000A4F10104DFDC484631462A464346BDE863
:1005A000F09F202A04DB203A00FA02F10020704775
:1005B0009140C2F1200320FA03F3194390407047A1
:1005C000202A06DBCB17203A41FA02F043EAE07317
:1005D00006E041FA02F3D040C2F120029140084304
:1005E0001946704710B5141E73F1000408DA401C58
:1005F00041F1000192185B411A4301D120F0010042
:1006000010BD2DE9F04D92469B4611B1B1FA81F231
:1006100002E0B0FA80F220329046FFF7C2FF0446B3
:100620000F4640EA0A0041EA0B0153465A46084386
:1006300013D0114653EA010019D0C8F140025046C8
:1006400000F070F805460E46504659464246FFF700
:10065000A8FF084305D0012004E020463946BDE844
:10066000F08D0020054346EAE0762C4337430A9894
:100670006305E40AA0EB08000022FD0A44EA47549F
:100680000A3002D500200146E9E701051019694149
:10069000DDE9084500196941BDE8F04DA2E7C1F365
:1006A0000A52C1F3130140F2FF3341F480119A4220
:1006B00002DA00200146704740F233439A42A2F228
:1006C000334202DC524200F02DB8FFF76ABF00004F
:1006D00030B5041E71F1000404DB4FF000444042C9
:1006E00064EB0101141E73F1000405DB1C464FF09E
:1006F0000043524263EB0403994208BF904230BD6D
:10070000064C074D06E0E06840F0010394E807005E
:1007100098471034AC42F6D3FFF70EFDA430000822
:10072000C4300008202A04DB203A21FA02F000211C
:10073000704721FA02F3D040C2F1200291400843F1
:10074000194670471CB501F0E7FF14490120CDE9B7
:1007500000010023802212A1144802F023FB01288B
:1007600002D113A001F07EF80C490220091DCDE949
:1007700000010023802214A1164802F013FB012877
:1007800002D115A001F06EF804480838406802F064
:100790005DF9BDE81C4001F0F9BF000090000020A9
:1007A000544553545F5461736B000000710F00088F
:1007B000B4B4BDA8544553545F5461736BC8CECED6
:1007C000F1B3C9B9A6210A004D4F544F525F54618D
:1007D000736B00005D0C0008B4B4BDA84D4F544FBE
:1007E000525F5461736BC8CECEF1B3C9B9A6210A6A
:1007F00000000000F8B50121042000F0DFFA042415
:100800008DF803404020ADF800000D4E03258DF813
:1008100002506946304600F0B9F90121042000F089
:10082000CDFA8DF803408020ADF800008DF802501D
:100830006946304600F0AAF9BDE8F84000F002B879
:100840000008014030B587B00121022000F0AAFA6B
:1008500000244FF6FF70ADF810001D4DADF80C40B0
:10086000ADF81240ADF80E408DF8144003A92846AB
:1008700000F022FE684600F0D5FCADF800400F24E1
:10088000ADF808406946284600F036FC0420ADF873
:100890000000ADF808406946284600F02DFC002312
:1008A0001A460321284600F00EFC0021284600F0DD
:1008B000D9FD0321284600F0F9FB01220321284637
:1008C00000F0B8FC0121284600F0F3FB07B030BD72
:1008D0000004004010B54FF4407000F04DFA00F0F5
:1008E00061FF00F05DFE00F047F800F0A3F90AA0F8
:1008F00000F0B8FF0D4890E80E000DA000F0B2FF28
:100900001548018815A000F0ADFF00F06DF8BDE8B6
:100910001040FFF76FBF00000D0A2064733138628A
:1009200032302065786974200D0A0000709700202D
:100930000D0AD0BEC6ACB5C4CEA8D2BB4944CEAA1F
:100940003A203078253038582D253038582D25302C
:1009500038580D0A00000000E0F7FF1F0D0AD0BE56
:10096000C6AC666C617368B5C4C8DDC1BFCEAA3AB7
:100970002025644B200D0A00F8B50121082000F065
:100980001DFA10248DF8034003258DF80250202015
:10099000144EADF800006946304600F0F7F88DF8C7
:1009A00003408DF802500120ADF800006946304642
:1009B00000F0ECF88DF803408DF802500220ADF8FD
:1009C00000006946304600F0E1F82021304600F092
:1009D0002EF90121304600F02AF90221304600F0BC
:1009E00026F9F8BD000C0140F8B50121082000F0FF
:1009F000E5F94FF48070ADF8000018240C4E8DF826
:100A0000034003258DF802506946304600F0BEF8D9
:100A10000121082000F0D2F97015ADF800008DF822
:100A200003408DF802506946304600F0AFF8F8BD3B
:100A3000000C0140F0B5074633480E464FF47A717A
:100A4000006887B0B0FBF1F0B0FBF2F0401E84B25A
:100A50001D460121042000F0A5F90020ADF810008A
:100A6000ADF81440ADF81200ADF816008DF818007E
:100A700004A9384600F020FD6020ADF800000120F8
:100A8000ADF80200641C6C43642094FBF0F0401E3F
:100A9000ADF806000220ADF80800012E06D0022EA7
:100AA0000DD0032E14D0042E23D11AE06946384607
:100AB00000F0C8FB0821384600F004FC19E0694644
:100AC000384600F005FC0821384600F041FC10E0F3
:100AD0006946384600F046FC0821384600F080FCA4
:100AE00007E06946384600F081FC0821384600F0EE
:100AF000AFFC0121384600F0CFFA0121384600F062
:100B0000D8FA07B0F0BD000000000020FEE70000AA
:100B1000C10002D502490860704702494860704729
:100B200004040240000002400029016802D041F0A4
:100B3000010102E04FF6FE72114001607047002A89
:100B4000026801D00A4300E08A430260704730B572
:100B5000036847F6F07293430C6A8A682243D1E92E
:100B600004452C4322438C692243CC6922434C6ABE
:100B700022438C6A22431A430260CA6842600A68B0
:100B800082604968C16030BD70470000F0B5CA7826
:100B9000002502F00F03D20601D58A7813430A78A4
:100BA0004FF00F0E12F0FF0F4FF001021CD004683F
:100BB0000F8802FA05F63740B74211D14FEA850C8B
:100BC0000EFA0CF724EA070703FA0CF43C43CF783B
:100BD000282F02D0482F02D002E0466100E00661D3
:100BE0006D1C082DE4D304600C88FF2C1ED94468CA
:100BF0005FF0000606F1080702FA07F50F882F409C
:100C0000AF420FD14FEA860C0EFA0CF7BC4303FA41
:100C10000CF73C43CF78282F00D14561CF78482F7F
:100C200000D10561761C082EE4D34460F0BD01615B
:100C30007047000006480168064801600449091F22
:100C400009684160024908390968816070470000FD
:100C5000F0F7FF1F70970020FEE7000046240026F3
:100C60004FF0010A284D294F4FF47A784FF4FA7962
:100C70004FF0020B00E0502485F800A0234601222B
:100C800003213846FFF7D6FE00230122042138460F
:100C9000FFF7D0FE404601F049FE2E7000230122EE
:100CA00004213846FFF7C6FE0023012203213846FF
:100CB000FFF7C0FE484601F039FE85F800B0234634
:100CC000012204213846FFF7B5FE0023012203214B
:100CD0003846FFF7AFFE404601F028FE2E70002395
:100CE000012204213846FFF7A5FE0023012203213B
:100CF0003846FFF79FFE484601F018FE641EE4B236
:100D00001E2CB9D8B7E7000088000020000800407A
:100D1000FEE7704770B50F23C47801780122F4B163
:100D2000144C2468457804F4E064C4F5E064240AB3
:100D3000C4F10406E3408478B5401C402C4301F123
:100D4000E021230181F80034007800F01F018A407F
:100D50004009800000F1E020C0F8002170BD01F0E2
:100D60001F0082404809800000F1E020C0F8802187
:100D700070BD00000CED00E0024908430249086024
:100D8000704700000000FA050CED00E0044A00295D
:100D9000516901D0014300E0814351617047000077
:100DA00000100240044A0029D16901D0014300E04B
:100DB0008143D1617047000000100240044A0029BD
:100DC000916901D0014300E08143916170470000C7
:100DD0000010024030B51F494A6812F00C031E4A49
:100DE00003D0042B01D0082B21D002604A680F23C6
:100DF0001A4C03EA1212A35C0268DA4042604B68A4
:100E0000072505EA1323E35C22FA03F383604B68AA
:100E100005EAD323E35CDA40C2604968032303EAAE
:100E20009131231F595CB2FBF1F1016130BD4A6879
:100E30004B6802F470124FF0020413F4803F04EB8D
:100E4000924202D04B689B0301D5054B00E0024B58
:100E50005A43CAE70010024000127A00180000202E
:100E600000093D000CB5002126480191009102685F
:100E700042F4803202604FF4A063026802F4003250
:100E80000092019A521C0192009A12B9019A9A4258
:100E9000F3D10268920333D5012100911A490A68FF
:100EA00042F010020A600A6822F003020A600A682F
:100EB00042F002020A604168416041684160416855
:100EC00041F480614160416821F47C1141604168D6
:100ED00041F4E8114160016841F0807101600168EE
:100EE0008901FCD5416821F003014160416841F06E
:100EF000020141604168C1F381010229FAD10CBDB0
:100F000000910CBD001002400020024010B501F01D
:100F100075FF012803D0BDE8104001F0CFBE10BD21
:100F20000F4810B5016841F00101016041680D4AA8
:100F30001140416001680C4A11400160016821F4D0
:100F400080210160416821F4FE0141604FF41F01DE
:100F50008160FFF787FF05494FF00060086010BD12
:100F6000001002400000FFF8FFFFF6FE08ED00E071
:100F700001F052FF0549086105A000F073FC034829
:100F80003221103001F00CFDF6E70000880000204F
:100F9000D5FDB3A3D4CBD0D0210D0A0070B5048CFD
:100FA00024F001040484058B048C4FF6FF7606EAD6
:100FB0000313134325F0F3050E4A2B4390420ED042
:100FC0000D4A90420BD0B0F1804F08D00B4A9042AE
:100FD00005D00B4A904202D00A4A904202D124F036
:100FE000020201E024F00A020A4342F001010383F5
:100FF000018470BD002C0140003401400004004019
:1010000000080040000C0040F0B5048C24F01004EF
:101010000484078B048C4FF6FF7527F4734705EAA9
:1010200003333B4305EA02221A43114B05EA01163A
:1010300098420ED00F4B98420BD0B0F1804F08D0A1
:101040000D4B984205D00D4B984202D00C4B984264
:1010500005D124F02001314341F0100104E024F0D7
:10106000A0030B4343F0100102830184F0BD000094
:10107000002C014000340140000400400008004002
:10108000000C004003480188018821F00101018023
:1010900070470000100400400029018802D041F090
:1010A000800101E021F0800101807047C943018285
:1010B00070470029018802D041F0010101E021F0D0
:1010C00001010180704770B50589048B068C25F0FD
:1010D00007050D434FF6FC410C4040F201110C4353
:1010E0004FF6FF7101EA031126F022061143314346
:1010F00005810483018470BD2DE9F05F0D4604462F
:101100000888434FDFF80CC1DFF80C814988AA88B2
:101110002B894FF0804960B3042833D04FF6FF7E0F
:10112000082838D0208C9B4620F480502084A38B44
:10113000268C704600EA022223F473431A4300EA25
:101140000B3010430EEA013EBC420BD0644509D07F
:101150004C4507D0444505D0304A944202D0304B2C
:101160009C4248D126F4005141EA0E0141F48051DD
:1011700046E02046FFF712FFE9882046BDE8F05F11
:1011800000F072B92046FFF73FFFE9882046BDE82E
:10119000F05F00F071B9208C20F480702084B4F8E6
:1011A0001CA0208C0EEA031313432AF0F30A0EEA64
:1011B000012B43EA0A03BC420BD0644509D04C45DD
:1011C00007D0444505D0154A944202D0144A9442AF
:1011D00004D120F4007040EA0B0002E020F420600B
:1011E000084340F48070A3832084E9882046BDE84A
:1011F000F05F00F04DB926F402420A4342F48051F8
:10120000A08320462184E988BDE8F05F00F048B95A
:10121000002C014000340140000400400008004060
:10122000000C004000210180418001228280C180A9
:1012300001817047002A828901D00A4300E08A4375
:101240008281704730B5028C22F001020284028C48
:101250008388048B22F0020224F073050C882C434F
:101260000D8915434A882A43114DA8420BD0114DD0
:10127000A84208D0104DA84205D0104DA84202D077
:101280000F4DA8420DD122F008054A8923F440737E
:101290002A4322F004058A882A438D891D43CB897D
:1012A0002B4383800483C9888186028430BD00007B
:1012B000002C014000340140004001400044014046
:1012C00000480140028B22F008020A430283704763
:1012D00070B5028C22F010020284028C8488038B89
:1012E0000D8823F4E6464FF6FF7303EA05253543E0
:1012F0000E8922F0200203EA061616434A8803EA02
:1013000002123243104EB04202D0104EB04215D1FC
:1013100022F080064A8924F4406403EA0212324330
:1013200022F040068A8803EA021232438E8903EAD9
:1013300086062643CC8903EA8404344384800583EB
:10134000C9880187028470BD002C0140003401402F
:10135000028B4FF6FF7322F4006203EA012111436E
:101360000183704770B5028C22F480720284028C73
:101370008488838B0D8823F073031D4322F400734C
:101380000E894FF6FF7202EA06261E434B8802EAD8
:1013900003233343104EB04202D0104EB04215D159
:1013A00023F400664B8924F4405402EA03233343B8
:1013B00023F480668B8802EA032333438E8902EA92
:1013C00006162643CC8902EA0414344384808583BC
:1013D000C9888187038470BD002C0140003401401E
:1013E000828B22F008020A438283704770B5028C18
:1013F00022F480520284048C8288838B0D8823F42B
:10140000E6464FF6FF7303EA0525354324F40056FC
:101410000C8903EA043434434E8803EA0636264333
:10142000094CA04202D0094CA04205D122F48044CC
:101430008A8903EA8212224382808583C988A0F8C0
:101440004010068470BD0000002C014000340140B3
:10145000828B4FF6FF7322F4006203EA01211143ED
:101460008183704781847047028B22F00C020283D3
:10147000028B0A4302837047028B22F4406202838C
:10148000028B4FF6FF7303EA01210A430283704780
:10149000828B22F00C028283828B0A438283704704
:1014A000828B22F440628283828B4FF6FF7303EAC1
:1014B00001210A438283704730B502881B4B1C4CC4
:1014C00098420DD0A0420BD0B0F1804F08D0194DFA
:1014D000A84205D0184DA84202D0184DA84203D109
:1014E00022F070054A882A43154DA84206D0154DB2
:1014F000A84203D022F44075CA882A4302808A8811
:1015000082850A88028598420AD0A04208D00E4AF5
:10151000904205D00D4A904202D00D4A904201D12E
:10152000097A01860121818230BD0000002C014032
:10153000003401400004004000080040000C00405E
:1015400000100040001400400040014000440140F1
:101550000048014070B55020EFF3118480F31188EA
:10156000BFF34F8FBFF36F8F074D40F224412846E2
:1015700000F083F820B100F049F9284600F00AF99C
:1015800084F3118870BD0000003801400029818972
:1015900002D041F4005101E021F4005181817047F3
:1015A00030B587B001210420FFF708FC0121880332
:1015B000FFF704FC4FF40070ADF8100018208DF810
:1015C00013000320234C8DF8120004A92046FFF7D6
:1015D000DDFA2015ADF8100004208DF8130004A9E1
:1015E0002046FFF7D3FA00244FF4E1300090ADF825
:1015F00008400C20184DADF80440ADF80A00ADF8D5
:101600000640ADF80C406946284600F06DF84FF4EE
:101610004070FFF7B1FB25208DF8140007208DF8EE
:1016200015008DF8164001208DF8170005A8FFF76A
:1016300071FB012240F22441284600F03DF80122CE
:101640004021284600F00AF801212846FFF79EFFB6
:1016500007B030BD0008014000380140002A828AEE
:1016600001D00A4300E08A4382827047024600208C
:1016700012880A4200D00120704730B501F01F02E5
:1016800001240025C1F3421304FA02F2012B0FD00A
:10169000022B0FD0838A4FEA11210088134204FAEB
:1016A00001F400EA040001D000B10125284630BD54
:1016B0008389F0E7038AEEE710B5C1F3421301F026
:1016C0001F040121A140012B07D0022B07D01430A9
:1016D000002A026805D00A4304E00C30F8E7103015
:1016E000F6E78A43026010BD30B50446008A85B033
:1016F0000D464CF6FF710840E98801432182A1891B
:101700004EF6F3100140A8882A8910436A890A43DB
:101710001043A081A08A4FF6FF410840A9890143E8
:10172000A1826846FFF756FB1948844201D103980D
:1017300000E00298A189090400EBC00101EB001050
:10174000296801D5490000E08900B0FBF1F064226E
:10175000B0FBF2F109010B096FF018056B4300EBC8
:101760008300A3891D044FF0320306D503EBC000AC
:10177000B0FBF2F000F0070005E003EB0010B0FB57
:10178000F2F000F00F000843208105B030BD0000EA
:10179000003801408088C0F308007047C1F3080199
:1017A0008180704710B501218CB00846FFF7EEFA32
:1017B000134800901348019000204FF47A71CDE94E
:1017C00002018021CDE9040120210690CDE9070125
:1017D0004FF44051CDE909100B4C69462046FFF704
:1017E000B6F94FF48030FFF793F901220821204623
:1017F000FFF7A5F901212046FFF796F90CB010BDBF
:1018000004380140889300205800024038B5114C3C
:1018100000212046FFF788F94FF40030FFF778F9F0
:101820000C494FF47A705839C86501212046FFF7FA
:101830007BF909486946006801F056FA00980028CB
:1018400007D006494FF080500860BFF34F8FBFF3B9
:101850006F8F38BD580002409C00002004ED00E06E
:10186000FEE700000FB4054B10B503A9044A029827
:1018700000F0DAF810BC5DF814FB0000312100081C
:10188000A000002002E008C8121F08C1002AFAD1F7
:1018900070477047002001E001C1121F002AFBD1F0
:1018A000704700002DE9FF5F82B00021DDE90430C0
:1018B000020DDDF840B0034318D044F61050A2F2F8
:1018C000FF3242431514119801281FD0A5EB0B00DD
:1018D000401C5FEA000A4FF000064E4FDFF83891D7
:1018E000B046504615D5CAF1000413E01198012402
:1018F0004AA3012801D16FEA0B010298119AC0E9AD
:101900000031C0E9024206B0BDE8F09FCBF1000013
:10191000DFE704460021404A491842EB0450CDE974
:10192000001012E0E00707D032463B4640464946E9
:10193000FEF70FFD8046894632463B461046194663
:10194000FEF707FD06460F466410002CEAD1DDE9DC
:101950000401DDE90023BAF1000F06DAFEF7F9FC15
:1019600042464B46FEF7F5FC05E0FEF764FD4246B5
:101970004B46FEF760FD04460E460022284BFEF75C
:10198000A7FE03D84FF0FF30014607E00022254BA9
:1019900020463146FEF736FCFEF781FE102409E0B2
:1019A000002C0ADB0A220023FEF7CAFD039B30321B
:1019B0001A55641E50EA0102F2D1641C039AC4F164
:1019C00011031444119A012A03D0012208430DD1B6
:1019D0000AE0084304D000204FF0110B119072E789
:1019E000A3EB0B056D1E0DE05B4504DD4FF000021F
:1019F00005F1010504E003DA4FF00002A5F101054D
:101A0000002AECD002981199C0E90231C0E90045E2
:101A100079E70000000014400000F03F30000000B3
:101A20000000F0430000E03F2DE9FF4F95B09A46DB
:101A3000884606460025EEE1252877D10024274672
:101A4000F94A0121039400E0044316F8013F203BCA
:101A500001FA03F01042F7D130782A2811D06FF044
:101A60002F033078A0F13002092A16D8039A44F0E7
:101A7000020402EB820203EB42021044761C039044
:101A8000EFE758F8042B0392002A03DA504244F49B
:101A90000054039044F00204761C30782E2816D1AE
:101AA00016F8010F44F004042A280DD06FF02F021D
:101AB0003078A0F13003092B09D807EB870302EB3C
:101AC0004303C718761CF3E758F8047B761C30787C
:101AD0006C280FD006DC4C2817D068280DD06A2857
:101AE00014D104E0742810D07A280FD10DE044F40A
:101AF00000140AE044F4801401E044F440147278C5
:101B0000824202D104F58014761C761C3078662857
:101B10000BD013DC582877D009DC002875D0452875
:101B2000F6D04628F4D047281AD193E118E063286C
:101B300035D0642879D0652812D18BE1702873D014
:101B400008DC6728F1D069286FD06E280DD06F2887
:101B500006D1ACE073282CD0752874D0782853D0E7
:101B60005246179990476D1C54E1C4F30250022865
:101B700009D003280DD0D8F8001004280DD00D602E
:101B800008F1040846E1D8F80010EA17C1E900524C
:101B9000F6E7D8F800100D80F2E70D70F0E718F8BE
:101BA000041B8DF8001000208DF80100EB46012089
:101BB00003E058F804BB4FF0FF3061074FF000011D
:101BC00002D40DE009F101018946B9420FDA8145DD
:101BD000F8DB1BF809100029F4D108E009F1010134
:101BE00089468142FADB1BF809100029F6D10398D7
:101BF0005346A0EB090721463846179A00F080FAB1
:101C0000284400EB090507E044E008E10DE01BF87B
:101C1000010B524617999047B9F10109F7D2534683
:101C200021463846179AF2E039E00A21C4F30252FD
:101C30004FF0000B0091022A06D058F8040BC11790
:101C4000032A09D00AE023E008F1070020F0070288
:101C5000F2E80201904605E000B2C117042A01D162
:101C600040B2C117002906DA0A460021404261EB62
:101C700002012D2202E0220504D52B228DF804203A
:101C8000012203E0E20701D02022F7E7914657E066
:101C90000A2100E010214FF0000B00910BE0102111
:101CA0004FF0000B44F004040827009103E00820E3
:101CB0004FF0000B0090C4F30252022A05D058F8EE
:101CC000040B0021032A08D008E008F1070020F0E7
:101CD0000702F2E80201904603E080B2042A00D134
:101CE000C0B24FF0000922072AD53278702A07D0F7
:101CF000DDF800C08CF0100C5CEA0B0C05D00EE097
:101D000040228DF80420012208E050EA010306D0A9
:101D100030238DF804308DF8052002229146009B77
:101D200083F0080353EA0B030AD150EA010201D100
:101D3000620705D530228DF804204FF001097F1E7F
:101D40003278582A04D039A20C920CAA02920BE0E5
:101D50003BA2F9E75B46009AFEF7F2FB0C9B9B5C0B
:101D6000029A521E0292137050EA0102F2D10298B6
:101D700004A9081A00F1200B600702D524F480346E
:101D800000E001275F4502DDA7EB0B0000E000202B
:101D900000EB0B01009003984944401A0390E003C4
:101DA00006D453462146179A039800F0A9F9054432
:101DB000002706E001A85246C05D179990476D1CA8
:101DC0007F1C4F45F6DBE0030CD553462146179A9E
:101DD000039800F095F9054404E030205246179925
:101DE00090476D1C0099481E00900029F5DC08E022
:101DF0000298029952460078491C0291179990471F
:101E00006D1CBBF10001ABF1010BF1DC5BE100F0FB
:101E100065F90544761C307800287FF40DAE19B0C2
:101E20002846BDE8F08F0000092801003031323328
:101E30003435363738396162636465660000000006
:101E400030313233343536373839414243444546F0
:101E500000000000600700D4062708F1070020F00A
:101E60000700F0E80223804603F0004C5FEA0C0014
:101E700001D097A009E0200501D596A005E0E00774
:101E800001D095A001E0AFF24C001390307823F020
:101E9000004365280CD006DC452809D046281DD013
:101EA00047287FD13BE0662818D067287AD136E0F2
:101EB0000021112F01DB112000E0781CCDE9000189
:101EC00004A90CA8FFF7EEFCDDE90D010C9A4FF018
:101ED000000B07F10109109200914EE04FF0004015
:101EE0000097CDE9011004A90CA8FFF7DBFCDDE9A0
:101EF0000D020C9B0F994FF0000B9146109300922E
:101F000011B9791C00EB0109B7EB090003D4C0F14A
:101F1000FF3B07F10109A9EB0700019042E0012F07
:101F200000DA01270021112F01DD112000E03846E1
:101F3000CDE9000104A90CA8FFF7B4FCDDE90D010F
:101F40000C9A00914FF0000BB946109221070FD464
:101F5000009A4A4503DA914601E0A9F10109B9F175
:101F6000010F05DD109AA9F10101515C3029F4D06F
:101F7000B84202DA10F1040F03DA0121CDE90110B1
:101F800010E0002803DC8344A9EB000102E0411CBF
:101F9000494500DD8946A0EB0B00401C01904FF045
:101FA00000400290200705D40198484502DB4FF01D
:101FB000FF30019000208DF84B0002980DF14B0787
:101FC000B0F1004F25D002200C902B200D900298EC
:101FD00000280CDA404202902D200D9007E00A21E3
:101FE0000298FEF797FA3031029007F8011D0C991C
:101FF000481E0C900029F2DC02980028EFD1791ECF
:102000000D980870307800F0200040F0450007F887
:10201000020D11A8C01BC01D02901398007800B1DA
:10202000012000EB0901019801EBE07102980144E5
:102030000398401A401E0390E00306D453462146FD
:10204000179A039800F05CF805441398007818B1CB
:102050005246179990476D1CE00323D553462146FD
:10206000179A039800F04CF805441BE0BBF1000FF1
:1020700007DB0098584504DD1098179910F80B00FD
:1020800001E0179930205246904701980BF1010B5F
:10209000401E05F10105019004D12E2052461799EA
:1020A00090476D1CB9F10001A9F10109DEDC05E0E2
:1020B00017F8010B5246179990476D1C0299481E5C
:1020C00002900029F4DC53462146179A03989EE6B5
:1020D0002D0000002B000000200000002DE9F04141
:1020E000044600251E461746880404D405E03946F8
:1020F0002020B0476D1C641EF9D52846BDE8F0814C
:102100002DE9F041044600251E469046C80301D53E
:10211000302700E02027880404D505E041463846F2
:10212000B0476D1C641EF9D52846BDE8F08100005B
:1021300070B5074D0446C1B22846FFF72FFB80213A
:102140002846FFF793FA0028F9D0204670BD00001A
:10215000003801401CB5FEF7BDFB0AA0FFF782FB6B
:1021600011490120CDE90001420200230FA11348CB
:1021700000F018FE012802D04FF0FF301CBD00F027
:10218000CFFCFEE7B4AEBFDAB7A2CBCDCAFDBEDD51
:10219000B4A5B7A2D6D0B6CF2CC8CECEF1B4A6C0C7
:1021A000EDCAFDBEDD210A008C0000204170705494
:1021B00061736B4372656174650000004507000838
:1021C0002DE9F041184C0F460546E6682068001DD1
:1021D00000F05EFA38B9206890F82C100120884091
:1021E000216981432161681C07D137B12168BDE8AD
:1021F000F0410E48091D00F083BA20683544B5420D
:102200004560216805D2A06BBDE8F041091D00F0D2
:102210005FBA606B091D00F05BFAA06A854200D2CC
:10222000A562BDE8F08100002800002074030020B2
:102230002DE9F041054600F06FFA2D4CA068401CD6
:10224000A06020682B4F10B1606930B32BE025608F
:10225000A068012827D1002606EB860007EB800046
:1022600000F028FA761C202EF6D3234800F022FA3C
:102270002148143000F01EFA1F48283000F01AFAE6
:102280001D483C3000F016FA1B48503000F012FA9E
:10229000194860631430A06305E02068E96AC06AE9
:1022A000884200D82560606A401C6062E96A0120AB
:1022B000226988401043206101EB810007EB800018
:1022C000291D00F01DFA00F061FA606900280CD0A9
:1022D0002068E96AC06A884207D208494FF08050F6
:1022E0000860BFF34F8FBFF36F8FBDE8F081000030
:1022F00028000020A40000202403002004ED00E0BA
:1023000070B5114E114C17E000F054FC3068B8B1B4
:1023100000F050FE00F000FAF068C568281D00F0DB
:10232000B7F9A068401EA0606068401E606000F0C1
:102330002DFA284600F00CF860680028E4D170BD42
:1023400000F038FEF8E700006003002028000020BD
:1023500010B50446006B00F049FA2046BDE8104075
:1023600000F044BA10484FF41041420706D0C01D97
:102370000D4920F00700411AC1F510410B4A002316
:102380000144C2E900030839103A21F00701116045
:102390004B600B600B1AC0E9001393604FF00040D4
:1023A0005360D06070470000880300208000002048
:1023B000074C4FF08056074DFFF7A2FF2068012819
:1023C000FAD92E60BFF34F8FBFF36F8FF4E7000091
:1023D000A400002004ED00E02DE9F047DDE90984C8
:1023E0000E4682466FF00301206B01EB8201084428
:1023F000089D20F007079946780705D040F22B3258
:1024000018A11FA0FFF72EFA00202218315C82F8D5
:102410003410315C11B1401C1028F6D3002684F82A
:102420004360202D00D31F25201DE56200F04DF9EB
:1024300004F1180000F049F92461C5F1200064623C
:10244000A061666484F848604A465146384600F008
:102450000DF92060B8F1000F01D0C8F80040BDE8C8
:10246000F08700002E2E5C352E4672656552544F63
:10247000535C7372635C7461736B732E6300000052
:102480004572726F723A25732C25640D0A000000A4
:1024900030B5114900E011460A688242FBD34B680F
:1024A0005C18844203D14068184448600846436879
:1024B0001C18944209D1084C103C2468A24209D04F
:1024C00052681A4442600A6812680260814200D071
:1024D000086030BD0460F9E7800000200648416BC9
:1024E000096829B1416BC968C96849688162704748
:1024F0004FF0FF31FAE7000028000020084840684C
:10250000401C04D0F42207A110A0FFF7ABF9502023
:1025100080F31188BFF34F8FBFF36F8FFEE700008A
:10252000640000202E2E5C352E4672656552544F95
:10253000535C706F72745C525644535C41524D5FF1
:10254000434D335C706F72742E6300004572726F7E
:10255000723A25732C25640D0A0000002DE9F04124
:102560000546002700F026FB324E306808B9FFF719
:10257000F9FEF06805424FD1002D4DD008356807AF
:102580000BD005F00700C0F108000544680704D02F
:10259000BF2229A131A0FFF765F9002D3CD070685A
:1025A000854239D82348103001460C6801E02046A6
:1025B0000C466168A94202D221680029F7D131682E
:1025C000B0468C4228D007682168016060680837EF
:1025D000401B10280ED96619700704D0EC2216A1F2
:1025E0001EA0FFF73FF96068401B706030466560D1
:1025F000FFF74EFF6268D8F804104046891AC8F801
:102600000410D8F80830994200D28160D8F80C0044
:1026100002430020C4E9000200F0CCFC780705D09A
:102620004FF4967204A10DA0FFF71CF93846BDE8DF
:10263000F0810000700000202E2E5C352E46726561
:102640006552544F535C706F72745C4D656D4D6193
:102650006E675C686561705F342E63004572726FEF
:10266000723A25732C25640D0A00000010B5031F73
:102670004FF080741C601B1F21F001011960191FAD
:10268000024B0B60143940380A6010BDFD2400086D
:10269000D0E9013201699A60D0E901235A604A68A1
:1026A000824201D182684A60002202610868401EAD
:1026B0000860704700F108014FF0FF32C0E90112D5
:1026C000C160016100210160704700210161704714
:1026D00030B50B685A1C02D000F1080202E0026912
:1026E00004E02246546825689D42FAD953684B603D
:1026F00099608A60516008610168491C016030BDC1
:1027000042684A6093688B60936859609160086181
:102710000168491C01607047502080F31188BFF3A5
:102720004F8FBFF36F8F09494868401C48600128EC
:102730000AD10748006810F0FF0F05D04FF4BE72B1
:1027400004A10EA0FFF78EB87047000064000020BF
:1027500004ED00E02E2E5C352E4672656552544F16
:10276000535C706F72745C525644535C41524D5FBF
:10277000434D335C706F72742E6300004572726F4C
:10278000723A25732C25640D0A00000010B5084C20
:10279000606828B940F2831206A110A0FFF762F822
:1027A0006068401E606001D180F3118810BD000098
:1027B000640000202E2E5C352E4672656552544F03
:1027C000535C706F72745C525644535C41524D5F5F
:1027D000434D335C706F72742E6300004572726FEC
:1027E000723A25732C25640D0A00000070B500288C
:1027F0002AD0164DA0F108046068E968084205D1A6
:102800004FF4A07212A11BA0FFF72CF8206828B18A
:1028100040F241120EA117A0FFF724F86168E868A2
:10282000014211D02268002A0ED18143616000F07C
:10283000C1F960686968084468602046FFF728FEAF
:10284000BDE8704000F0B6BB70BD00007000002015
:102850002E2E5C352E4672656552544F535C706F58
:1028600072745C4D656D4D616E675C686561705F2B
:10287000342E63004572726F723A25732C25640DF5
:102880000A00000006484FF47A710068B0FBF1F1CD
:102890004FF0E020491E41610721016170470000AF
:1028A0000000002010B5FDF797FC104C10280CD349
:1028B00000F1E02090F8F0032178884205D240F240
:1028C000AA220BA114A0FEF7CDFF17480068A1684B
:1028D00000F4E060884207D9BDE8104040F2BA2217
:1028E00003A10DA0FEF7BEBF10BD000064000020D4
:1028F0002E2E5C352E4672656552544F535C706FB8
:1029000072745C525644535C41524D5F434D335C8C
:10291000706F72742E6300004572726F723A257385
:102920002C25640D0A0000000CED00E010B5040039
:1029300012D00E48006B28B140F2CE420CA113A079
:10294000FEF790FF00F036F900212046FFF738FC33
:1029500000F030FB002807D110494FF0805008608C
:10296000BFF34F8FBFF36F8F10BD00002800002012
:102970002E2E5C352E4672656552544F535C737231
:10298000635C7461736B732E630000004572726F39
:10299000723A25732C25640D0A00000004ED00E056
:1029A00070B50D46040005D14FF48F621AA121A025
:1029B000FEF758FF2DB940F2794217A11DA0FEF78E
:1029C00051FF204E306B28B140F27A4212A119A07B
:1029D000FEF748FF00F0EEF8F268236859199342B9
:1029E00004D98B420AD9914202D807E08B42FAD926
:1029F000881A21600021FFF7E3FB00E0216000F06E
:102A0000D9FA002807D110494FF080500860BFF371
:102A10004F8FBFF36F8F70BD2E2E5C352E467265C3
:102A20006552544F535C7372635C7461736B732EA5
:102A3000630000004572726F723A25732C25640D95
:102A40000A0000002800002004ED00E070B50546F3
:102A5000FFF762FE234C05B92568281DFFF718FE15
:102A600058B9E86A204A00EB800152F8211021B9D8
:102A700001218140206988432061A86A18B105F1CD
:102A80001800FFF705FE606A401C606220688542FE
:102A900007D1291D1548FFF733FE6068401C6060B0
:102AA00007E0A068401EA0602846FFF751FCFFF732
:102AB00015FDFFF76BFE6069002812D02068854283
:102AC0000FD1206B28B140F2644209A10FA0FEF79C
:102AD000C9FE12494FF080500860BFF34F8FBFF31B
:102AE0006F8F70BD28000020A4000020600300202C
:102AF0002E2E5C352E4672656552544F535C7372B0
:102B0000635C7461736B732E630000004572726FB7
:102B1000723A25732C25640D0A00000004ED00E0D4
:102B20001CB515480024CDE900402346802213A19E
:102B3000144800F037F901280AD0401C1BD102B01C
:102B400040F28472BDE810400FA116A0FEF78ABEC5
:102B5000502080F31188BFF34F8FBFF36F8F06486B
:102B60004FF0FF312C38816201214161C460BDE822
:102B70001C4000F069B81CBD5400002049444C457D
:102B800000000000B12300082E2E5C352E46726531
:102B90006552544F535C7372635C7461736B732E34
:102BA000630000004572726F723A25732C25640D24
:102BB0000A0000000248016B491C016370470000D5
:102BC0002800002070B5134C206B10B10120E0618B
:102BD00070BD0020E06120690F4EB0FA80F0C0F1B6
:102BE0001F0000EB800556F8250028B940F6F422B6
:102BF0000AA111A0FEF736FE06EB850000F10802DF
:102C0000416849684160914201D149684160C868A2
:102C1000206070BD28000020A40000202E2E5C350E
:102C20002E4672656552544F535C7372635C7461D7
:102C3000736B732E630000004572726F723A2573D6
:102C40002C25640D0A0000001CB519490878019074
:102C5000FF20087008788DF800009DF80000154AE4
:102C600000F0500010700720906005E09DF80030E3
:102C70005B008DF80030401E9DF800301B06F5D437
:102C8000000200F4E0609060019808700A48016852
:102C900041F470010160016841F070410160FFF78B
:102CA000F1FD00205060FDF761FA00201CBD00001E
:102CB00000E400E06400002020ED00E010B55020AA
:102CC00080F31188BFF34F8FBFF36F8F00F0AAF826
:102CD00018B104494FF080500860002080F311883B
:102CE00010BD000004ED00E070B50E46040005D1F3
:102CF00040F23C4220A127A0FEF7B4FD206C28B191
:102D00004FF488621CA123A0FEF7ACFD206838B9FF
:102D1000606828B140F2454217A11EA0FEF7A2FD4F
:102D2000FFF7C0FD5020EFF3118580F31188BFF34A
:102D30004F8FBFF36F8FA16BE06B884218D994F966
:102D40004500491CA163411C04D0401C84F8450087
:102D500001200EE0606A0028FAD004F1240000F09F
:102D6000D9F80028F4D0002EF2D001203060EFE72F
:102D7000002085F3118870BD2E2E5C352E467265BD
:102D80006552544F535C7372635C71756575652E43
:102D9000630000004572726F723A25732C25640D32
:102DA0000A0000002DE9FF5F8346DDE90E879946A2
:102DB00016468A469000FFF7D1FB05001AD04C203A
:102DC000FFF7CCFB040012D025630021CDE90241BE
:102DD000CDE900874B46324651465846FFF7FCFA8C
:102DE0002046FFF725FA012004B0BDE8F09F2846F1
:102DF000FFF7FCFC4FF0FF30F6E7000005484169A3
:102E000019B1006B18B100207047012070470220F3
:102E100070470000280000200148C068704700008B
:102E2000280000202DE9F0412D4C0027206B40B1F7
:102E3000A069401CA061E06900B101273846BDE8E7
:102E4000F081E668761CE66011D1606B006828B1FD
:102E500040F6D81223A12AA0FEF704FD606BA16BF7
:102E60006163A063206A401C2062FFF737FBA06A01
:102E7000DFF89C80864209D3606B006880B1606B8C
:102E8000C068C568686886420DD2A0622068C06AC2
:102E900000EB800158F821000128CCD90127CAE7AE
:102EA0004FF0FF30F1E7281DFFF7F2FBA86A18B1D9
:102EB00005F11800FFF7ECFBE86A01212269814067
:102EC0001143216100EB800108EB8100291DFFF710
:102ED00017FCE86A2168C96A8842CDD30127CBE78D
:102EE000280000202E2E5C352E4672656552544F08
:102EF000535C7372635C7461736B732E63000000C8
:102F00004572726F723A25732C25640D0A00000019
:102F1000A40000202DE9F041C068C4682CB940F637
:102F20005F3216A11CA0FEF79DFC04F118000746B5
:102F3000FFF7AEFB1C4D286B012660B139461B48DC
:102F4000FFF7DEFBE06A2968C96A884213D90120CD
:102F5000EE61BDE8F081201DFFF79AFBE16A2A6966
:102F600006FA01F01043286101EB8100104901EBE2
:102F70008000211DE4E70020EBE700002E2E5C35E9
:102F80002E4672656552544F535C7372635C746174
:102F9000736B732E630000004572726F723A257373
:102FA0002C25640D0A000000280000204C0300209E
:102FB000A40000202DE9F0472C4C00252E46206B64
:102FC00028B94FF4FD622AA130A0FEF74BFCFFF7B1
:102FD000A3FB206B401E2063206BE0BBA1682F4F3A
:102FE0000120C1B3A7F52A7980463868E8B1F868AE
:102FF000C56805F11800FFF74BFB281DFFF748FBDC
:10300000E86A226908FA00F11143216100EB8001AE
:1030100009EB8100291DFFF773FBE86A2168C96A83
:103020008842E2D3C4F81C80DFE70DB1FFF756FAFF
:10303000A5694DB14FEA0807FFF7F4FE00B1E7615B
:103040006D1EF9D10020A061E06920B1144901266C
:103050003007086000E003E0BFF34F8FBFF36F8FCE
:10306000FFF794FB3046BDE8F08700002800002001
:103070002E2E5C352E4672656552544F535C73722A
:10308000635C7461736B732E630000004572726F32
:10309000723A25732C25640D0A0000004C030020B1
:1030A00004ED00E0C430000800000020A40000008F
:1030B0008418000868310008A4000020DC9A000091
:1030C0009418000800A24A0400000000000000005C
:1030D00001020304060708090204060800000000B4
:1030E00001020304010203040607080900000000AE
:1030F00000000000000000000000000000000000D0
:1031000000000000000000000000000000000000BF
:1031100000000000000000000000000000000000AF
:10312000000000000000000000000000AAAAAAAAF7
:10313000000000000000000000000000000000008F
:10314000000000000000000000000000000000007F
:10315000000000000000000000000000000000006F
:08316000000000000000000067
:0400000508000131BD
:00000001FF
