:020000040800F2
:10000000784B002099010008A30700080B0700089F
:10001000A1070008E50500085113000800000000D2
:1000200000000000000000000000000001010008C6
:100030006106000800000000450100089D09000855
:10004000B3010008B3010008B3010008B3010008C0
:10005000B3010008B3010008B3010008B3010008B0
:10006000B3010008B3010008B3010008B3010008A0
:10007000B3010008B3010008B3010008B301000890
:10008000B3010008B3010008B3010008B301000880
:10009000B3010008B3010008B3010008B301000870
:1000A000B3010008B3010008B3010008B301000860
:1000B000B3010008590B0008B3010008B3010008A0
:1000C000B3010008B3010008B3010008B301000840
:1000D000B301000845100008B3010008B30100088F
:1000E000B3010008B3010008B3010008DFF80CD029
:1000F00000F07AF80048004771150008784B00209E
:10010000224B19680868B0E8F00F80F30988BFF344
:100110006F8F4FF0000080F311884EF00D0E704786
:100120000000000006480068006880F3088862B696
:1001300061B6BFF34F8FBFF36F8F00DF00BF00BF0B
:1001400008ED00E0EFF30980BFF36F8F0F4B1A68E3
:1001500020E9F00F106008B54FF0500080F31188CF
:10016000BFF34F8FBFF36F8F01F046FF4FF00000DA
:1001700080F31188BDE8084019680868B0E8F00FFE
:1001800080F30988BFF36F8F704700BF28000020FD
:10019000EFF3058070470000064880470648004797
:1001A000FEE7FEE7FEE7FEE7FEE7FEE7FEE7FEE727
:1001B000FEE7FEE7B1090008ED00000830B50B4688
:1001C000014600202022012409E021FA02F59D4287
:1001D00005D303FA02F5491B04FA02F52844151E5B
:1001E000A2F10102F1DC30BD064C074D06E0E068EB
:1001F00040F0010394E8070098471034AC42F6D36E
:10020000FFF778FFF8250008182600087CB501F0F4
:100210009DFC03220021012001F080FF1B4C0023E4
:1002200004F1080160610120CDE90001802218A1DC
:100230001A4802F061F8012802D119A001F08AF8E9
:10024000124802250C30CDE90050002380221AA16B
:100250001C4802F051F8012802D11BA001F07AF8E5
:100260000A4800231030CDE9005080221CA11F480D
:1002700002F042F8012802D11DA001F06BF860687D
:1002800001F0FEFDBDE87C4001F09ABC8800002032
:10029000544553545F5461736B000000010A000819
:1002A000B4B4BDA8544553545F5461736BC8CECEEB
:1002B000F1B3C9B9A6210A004C45445F5461736B80
:1002C000000000000D070008B4B4BDA84C45445F11
:1002D0005461736BC8CECEF1B3C9B9A6210A000030
:1002E0004D4F544F525F5461736B00003507000847
:1002F000B4B4BDA84D4F544F525F5461736BC8CE18
:10030000CEF1B3C9B9A6210A00000000F8B5012159
:10031000042000F09BFA04248DF803404020ADF83F
:1003200000000D4E03258DF802506946304600F05E
:1003300099F90121042000F089FA8DF8034080200A
:10034000ADF800008DF802506946304600F08AF999
:10035000BDE8F84000F010B80008014070B5054D48
:10036000284600F03FFC04460021284600F0F2FD3C
:10037000204670BD0004004030B587B00121022046
:1003800000F058FA00244FF6FF70ADF810001D4D34
:10039000ADF80C40ADF81240ADF80E408DF81440A9
:1003A00003A9284600F000FE684600F0B3FCADF853
:1003B00000400F24ADF808406946284600F014FCC0
:1003C0000420ADF80000ADF808406946284600F06A
:1003D0000BFC0A231A460321284600F0EAFB0321FE
:1003E000284600F0D9FB01220321284600F09AFCA0
:1003F0000021284600F0AEFD0121284600F0CFFB89
:1004000007B030BD000400402DE9F8430121102061
:1004100000F01CFA10248DF803400325DFF85C80FF
:100420008DF802506602ADF800606946404600F063
:1004300019F98DF803408DF802500120104FADF8E6
:1004400000006946384600F00DF98DF803408DF83C
:1004500002500220ADF800006946384600F002F96B
:100460003146404600F04FF90121384600F04BF983
:100470000221384600F047F9BDE8F883001001403A
:10048000000C0140F8B50121082000F0DFF9402000
:10049000ADF8000018241C4E8DF8034003258DF89C
:1004A00002506946304600F0DDF80121082000F0D6
:1004B000CDF98020ADF800008DF803408DF8025092
:1004C0006946304600F0CEF80121082000F0BEF960
:1004D000B015ADF800008DF803408DF80250694664
:1004E000304600F0BFF80121082000F0AFF9701588
:1004F000ADF800008DF803408DF802506946304693
:1005000000F0B0F8F8BD0000000C0140F0B507465F
:1005100033480E464FF47A71006887B0B0FBF1F0B3
:10052000B0FBF2F0401E84B21D460121042000F011
:1005300081F90020ADF81000ADF81440ADF81200BC
:10054000ADF816008DF8180004A9384600F02CFD0F
:100550006020ADF800000120ADF80200641C6C437F
:10056000642094FBF0F0401EADF806000220ADF8C8
:100570000800012E06D0022E0DD0032E14D0042E1A
:1005800023D11AE06946384600F0D4FB08213846EA
:1005900000F010FC19E06946384600F011FC082113
:1005A000384600F04DFC10E06946384600F052FC39
:1005B0000821384600F08CFC07E06946384600F018
:1005C0008DFC0821384600F0BBFC0121384600F0C4
:1005D000D9FA0121384600F0E2FA07B0F0BD000078
:1005E00000000020FEE70000C10002D502490860BB
:1005F000704702494860704704040240000002400E
:100600000029016802D041F0010102E04FF6FE72BC
:10061000114001607047002A026801D00A4300E0DF
:100620008A430260704730B5036847F6F07293431F
:100630000C6A8A682243D1E904452C4322438C6921
:100640002243CC6922434C6A22438C6A22431A43D8
:100650000260CA6842600A6882604968C16030BD51
:1006600070470000F0B5CA78002502F00F03D206EB
:1006700001D58A7813430A784FF00F0E12F0FF0F5E
:100680004FF001021CD004680F8802FA05F63740CB
:10069000B74211D14FEA850C0EFA0CF724EA07078E
:1006A00003FA0CF43C43CF78282F02D0482F02D015
:1006B00002E0466100E006616D1C082DE4D3046091
:1006C0000C88FF2C1ED944685FF0000606F108076D
:1006D00002FA07F50F882F40AF420FD14FEA860C80
:1006E0000EFA0CF7BC4303FA0CF73C43CF78282FE3
:1006F00000D14561CF78482F00D10561761C082EC6
:10070000E4D34460F0BD01617047FEE7084C4FF44C
:100710007A75E06880F40050E060284601F020FB24
:10072000E06880F40050E060284601F019FBF0E733
:100730000010014032244FF000084FF00109164D1F
:10074000164E4FF4FA7700E05024641EE4B285F8A8
:1007500000902346012203213046FFF7D7FE3223C3
:10076000012204213046FFF7D1FE384601F0F8FAA5
:1007700085F800802346012204213046FFF7C6FE9B
:100780003223012203213046FFF7C0FE384601F034
:10079000E7FA142CD9D2D7E78800002000080040DF
:1007A000FEE7704770B50F23C47801780122F4B1D9
:1007B000144C2468457804F4E064C4F5E064240A29
:1007C000C4F10406E3408478B5401C402C4301F199
:1007D000E021230181F80034007800F01F018A40F5
:1007E0004009800000F1E020C0F8002170BD01F058
:1007F0001F0082404809800000F1E020C0F88021FD
:1008000070BD00000CED00E0024908430249086099
:10081000704700000000FA050CED00E0044A0029D2
:10082000516901D0014300E08143516170470000EC
:1008300000100240044A0029D16901D0014300E0C0
:100840008143D1617047000000100240044A002932
:10085000916901D0014300E081439161704700003C
:100860000010024030B51F494A6812F00C031E4ABE
:1008700003D0042B01D0082B21D002604A680F233B
:100880001A4C03EA1212A35C0268DA4042604B6819
:10089000072505EA1323E35C22FA03F383604B6820
:1008A00005EAD323E35CDA40C2604968032303EA24
:1008B0009131231F595CB2FBF1F1016130BD4A68EF
:1008C0004B6802F470124FF0020413F4803F04EB03
:1008D000924202D04B689B0301D5054B00E0024BCE
:1008E0005A43CAE70010024000127A0018000020A4
:1008F00000093D000CB500212648019100910268D5
:1009000042F4803202604FF4A063026802F40032C5
:100910000092019A521C0192009A12B9019A9A42CD
:10092000F3D10268920333D5012100911A490A6874
:1009300042F010020A600A6822F003020A600A68A4
:1009400042F002020A6041684160416841604168CA
:1009500041F480614160416821F47C11416041684B
:1009600041F4E8114160016841F080710160016863
:100970008901FCD5416821F003014160416841F0E3
:10098000020141604168C1F381010229FAD10CBD25
:1009900000910CBD001002400020024010B501F093
:1009A000D7FC012803D0BDE8104001F0A1BB10BD69
:1009B0000F4810B5016841F00101016041680D4A1E
:1009C0001140416001680C4A11400160016821F446
:1009D00080210160416821F4FE0141604FF41F0154
:1009E0008160FFF787FF05494FF00060086010BD88
:1009F000001002400000FFF8FFFFF6FE08ED00E0E7
:100A00004FF4967501F0B2FC0C4C0D4F0D4EA061E9
:100A10003846FFF7A3FC3188C1EB0141084481B29D
:100A20002078012808D008A000F094FC034829464B
:100A3000183001F0CFF9EBE708A0F5E788000020B7
:100A400000040040A4000020B7B4D7AAB1E0C2EB74
:100A5000C6F7BCC6CAFD25640D0A0000D5FDD7AA9D
:100A6000B1E0C2EBC6F7BCC6CAFD25640D0A0000A2
:100A700070B5048C24F001040484058B048C4FF6BB
:100A8000FF7606EA0313134325F0F3050E4A2B43C2
:100A900090420ED00D4A90420BD0B0F1804F08D05A
:100AA0000B4A904205D00B4A904202D00A4A90422B
:100AB00002D124F0020201E024F00A020A4342F0CB
:100AC00001010383018470BD002C0140003401400A
:100AD0000004004000080040000C0040F0B5048C09
:100AE00024F010040484078B048C4FF6FF7527F460
:100AF000734705EA03333B4305EA02221A43114BCD
:100B000005EA011698420ED00F4B98420BD0B0F177
:100B1000804F08D00D4B984205D00D4B984202D023
:100B20000C4B984205D124F02001314341F01001D3
:100B300004E024F0A0030B4343F01001028301847E
:100B4000F0BD0000002C01400034014000040040D2
:100B500000080040000C00400748017807480129C0
:100B6000018807D0491E018000210180012104482D
:100B700000F012B8491CF6E788000020A40000200D
:100B8000000400400029018802D041F0800101E00A
:100B900021F0800101807047C9430182704700291C
:100BA000018802D041F0010101E021F00101018042
:100BB000704770B50589048B068C25F007050D4339
:100BC0004FF6FC410C4040F201110C434FF6FF710F
:100BD00001EA031126F02206114331430581048303
:100BE000018470BD808C70472DE9F05F0D4604468E
:100BF0000888434FDFF80CC1DFF80C814988AA88C8
:100C00002B894FF0804960B3042833D04FF6FF7E24
:100C1000082838D0208C9B4620F480502084A38B59
:100C2000268C704600EA022223F473431A4300EA3A
:100C30000B3010430EEA013EBC420BD0644509D094
:100C40004C4507D0444505D0304A944202D0304B41
:100C50009C4248D126F4005141EA0E0141F48051F2
:100C600046E02046FFF704FFE9882046BDE8F05F34
:100C700000F072B92046FFF731FFE9882046BDE851
:100C8000F05F00F071B9208C20F480702084B4F8FB
:100C90001CA0208C0EEA031313432AF0F30A0EEA79
:100CA000012B43EA0A03BC420BD0644509D04C45F2
:100CB00007D0444505D0154A944202D0144A9442C4
:100CC00004D120F4007040EA0B0002E020F4206020
:100CD000084340F48070A3832084E9882046BDE85F
:100CE000F05F00F04DB926F402420A4342F480510D
:100CF000A08320462184E988BDE8F05F00F048B970
:100D0000002C014000340140000400400008004075
:100D1000000C004000210180418001228280C180BE
:100D200001817047002A828901D00A4300E08A438A
:100D30008281704730B5028C22F001020284028C5D
:100D40008388048B22F0020224F073050C882C4364
:100D50000D8915434A882A43114DA8420BD0114DE5
:100D6000A84208D0104DA84205D0104DA84202D08C
:100D70000F4DA8420DD122F008054A8923F4407393
:100D80002A4322F004058A882A438D891D43CB8992
:100D90002B4383800483C9888186028430BD000090
:100DA000002C01400034014000400140004401405B
:100DB00000480140028B22F008020A430283704778
:100DC00070B5028C22F010020284028C8488038B9E
:100DD0000D8823F4E6464FF6FF7303EA05253543F5
:100DE0000E8922F0200203EA061616434A8803EA17
:100DF00002123243104EB04202D0104EB04215D112
:100E000022F080064A8924F4406403EA0212324345
:100E100022F040068A8803EA021232438E8903EAEE
:100E200086062643CC8903EA840434438480058300
:100E3000C9880187028470BD002C01400034014044
:100E4000028B4FF6FF7322F4006203EA0121114383
:100E50000183704770B5028C22F480720284028C88
:100E60008488838B0D8823F073031D4322F4007361
:100E70000E894FF6FF7202EA06261E434B8802EAED
:100E800003233343104EB04202D0104EB04215D16E
:100E900023F400664B8924F4405402EA03233343CD
:100EA00023F480668B8802EA032333438E8902EAA7
:100EB00006162643CC8902EA0414344384808583D1
:100EC000C9888187038470BD002C01400034014033
:100ED000828B22F008020A438283704770B5028C2D
:100EE00022F480520284048C8288838B0D8823F440
:100EF000E6464FF6FF7303EA0525354324F4005612
:100F00000C8903EA043434434E8803EA0636264348
:100F1000094CA04202D0094CA04205D122F48044E1
:100F20008A8903EA8212224382808583C988A0F8D5
:100F30004010068470BD0000002C014000340140C8
:100F4000828B4FF6FF7322F4006203EA0121114302
:100F50008183704781847047028B22F00C020283E8
:100F6000028B0A4302837047028B22F440620283A1
:100F7000028B4FF6FF7303EA01210A430283704795
:100F8000828B22F00C028283828B0A438283704719
:100F9000828B22F440628283828B4FF6FF7303EAD6
:100FA00001210A438283704730B502881B4B1C4CD9
:100FB00098420DD0A0420BD0B0F1804F08D0194D0F
:100FC000A84205D0184DA84202D0184DA84203D11E
:100FD00022F070054A882A43154DA84206D0154DC7
:100FE000A84203D022F44075CA882A4302808A8826
:100FF00082850A88028598420AD0A04208D00E4A0B
:10100000904205D00D4A904202D00D4A904201D143
:10101000097A01860121818230BD0000002C014047
:10102000003401400004004000080040000C004073
:101030000010004000140040004001400044014006
:101040000048014070B55020EFF3118480F31188FF
:10105000BFF34F8FBFF36F8F074D40F224412846F7
:1010600000F083F820B100F049F9284600F00AF9B1
:1010700084F3118870BD0000003801400029818987
:1010800002D041F4005101E021F400518181704708
:1010900030B587B001210420FFF7D8FB0121880378
:1010A000FFF7D4FB4FF40070ADF8100018208DF856
:1010B00013000320234C8DF8120004A92046FFF7EB
:1010C000D1FA2015ADF8100004208DF8130004A902
:1010D0002046FFF7C7FA00244FF4E1300090ADF846
:1010E00008400C20184DADF80440ADF80A00ADF8EA
:1010F0000640ADF80C406946284600F06DF84FF404
:101100004070FFF781FB25208DF8140007208DF833
:1011100015008DF8164001208DF8170005A8FFF77F
:1011200041FB012240F22441284600F03DF8012213
:101130004021284600F00AF801212846FFF79EFFCB
:1011400007B030BD0008014000380140002A828A03
:1011500001D00A4300E08A438282704702460020A1
:1011600012880A4200D00120704730B501F01F02FA
:1011700001240025C1F3421304FA02F2012B0FD01F
:10118000022B0FD0838A4FEA11210088134204FA00
:1011900001F400EA040001D000B10125284630BD69
:1011A0008389F0E7038AEEE710B5C1F3421301F03B
:1011B0001F040121A140012B07D0022B07D01430BE
:1011C000002A026805D00A4304E00C30F8E710302A
:1011D000F6E78A43026010BD30B50446008A85B048
:1011E0000D464CF6FF710840E98801432182A18930
:1011F0004EF6F3100140A8882A8910436A890A43F1
:101200001043A081A08A4FF6FF410840A9890143FD
:10121000A1826846FFF726FB1948844201D1039852
:1012200000E00298A189090400EBC00101EB001065
:10123000296801D5490000E08900B0FBF1F0642283
:10124000B0FBF2F109010B096FF018056B4300EBDD
:101250008300A3891D044FF0320306D503EBC000C1
:10126000B0FBF2F000F0070005E003EB0010B0FB6C
:10127000F2F000F00F000843208105B030BD0000FF
:10128000003801408088C0F308007047C1F30801AE
:101290008180704710B501218CB00846FFF7BEFA77
:1012A000134800901348019000204FF47A71CDE963
:1012B00002018021CDE9040120210690CDE907013A
:1012C0004FF44051CDE909100B4C69462046FFF719
:1012D000AAF94FF48030FFF787F901220821204650
:1012E000FFF799F901212046FFF78AF90CB010BDEC
:1012F00004380140904300205800024038B5114C9A
:1013000000212046FFF77CF94FF40030FFF76CF91D
:101310000C494FF47A705839C86501212046FFF70F
:101320006FF909486946006800F088FF00980028B6
:1013300007D006494FF080500860BFF34F8FBFF3CE
:101340006F8F38BD580002409C00002004ED00E083
:10135000FEE700000FB4054B10B503A9044A02983C
:1013600000F018F810BC5DF814FB00004D150008E3
:10137000A800002002E008C8121F08C1002AFAD104
:1013800070477047002001E001C1121F002AFBD105
:10139000704700002DE9FF4F8BB09A460F46054677
:1013A000002606E025280BD052460D9990476D1C6B
:1013B000761C28780028F5D10FB03046BDE8F08FB4
:1013C0000024A0460122604900E0044315F8013FD3
:1013D000203B02FA03F00842F7D128782E2817D1D3
:1013E00015F8010F44F004042A280ED06FF02F02E4
:1013F0002878A0F1300109290AD808EB880102EB0E
:10140000410100EB01086D1CF2E757F8048B6D1CDD
:10141000287869283ED006DC0028CDD063280BD080
:10142000642804D136E0732810D075284BD052467A
:101430000D999047761C85E017F8040B8DF8000095
:1014400000208DF80100E946012003E057F8049BD5
:101450004FF0FF3061074FF0000401D40AE0641C34
:1014600044450DDA8442FADB19F804100029F6D15C
:1014700006E0641C8442FCDB19F804100029F8D152
:10148000264404E019F8010B52460D999047641E5A
:10149000F8D257E001CF4FF00A0B002802DA4042A1
:1014A0002D2102E0210504D52B218DF824100121E6
:1014B00003E0E10705D02021F7E70DF120090891AD
:1014C0000CE00021F9E701CF4FF00A0BF9E759468C
:1014D000FEF774FE01F1300209F8012D0028F6D163
:1014E000ADEB090000F1200B600701D44FF00108BB
:1014F000D84502DDA8EB0B0000E000208046002468
:1015000006E009A85246005D0D999047641C761CC0
:1015100008988442F5DB04E0302052460D9990474C
:10152000761CB8F10001A8F10108F5DC05E019F816
:10153000010B52460D999047761CBBF10001ABF1AF
:10154000010BF4DC6D1C34E70928010070B5074D70
:101550000446C1B22846FFF799FE80212846FFF7CE
:10156000FDFD0028F9D0204670BD00000038014084
:101570001CB54FF44070FFF747F9FFF78BFEFFF7FC
:1015800087FDFEF741FFFEF77DFFFEF7BFFE0AA0D5
:10159000FFF7E0FE11490120CDE9000142020023DE
:1015A0000FA1134800F0A8FE012802D04FF0FF3031
:1015B0001CBD00F0CFFCFEE7B4AEBFDAB7A2CBCDC6
:1015C000CAFDBEDDB4A5B7A2D6D0B6CF2CC8CECE4C
:1015D000F1B4A6C0EDCAFDBEDD210A008C000020DA
:1015E0004170705461736B437265617465000000F3
:1015F0000D0200082DE9F041184C0F460546E6683B
:101600002068001D00F05EFA38B9206890F82C10B0
:1016100001208840216981432161681C07D137B1CD
:101620002168BDE8F0410E48091D00F083BA20682A
:101630003544B5424560216805D2A06BBDE8F04154
:10164000091D00F05FBA606B091D00F05BFAA06A2B
:10165000854200D2A562BDE8F0810000280000208C
:101660007C0300202DE9F041054600F06FFA2D4C77
:10167000A068401CA06020682B4F10B1606930B397
:101680002BE02560A068012827D1002606EB860004
:1016900007EB800000F028FA761C202EF6D32348B2
:1016A00000F022FA2148143000F01EFA1F482830BA
:1016B00000F01AFA1D483C3000F016FA1B48503072
:1016C00000F012FA194860631430A06305E0206846
:1016D000E96AC06A884200D82560606A401C60627E
:1016E000E96A0120226988401043206101EB8100F2
:1016F00007EB8000291D00F01DFA00F061FA606917
:1017000000280CD02068E96AC06A884207D20849DC
:101710004FF080500860BFF34F8FBFF36F8FBDE86D
:10172000F081000028000020AC0000202C030020E5
:1017300004ED00E070B5114E114C17E000F054FCC0
:101740003068B8B100F0E0FE00F000FAF068C5685B
:10175000281D00F0B7F9A068401EA0606068401E18
:10176000606000F02DFA284600F00CF86068002850
:10177000E4D170BD00F0C8FEF8E700006803002067
:101780002800002010B50446006B00F049FA2046FE
:10179000BDE8104000F044BA10484FF480414207C1
:1017A00006D0C01D0D4920F00700411AC1F5804147
:1017B0000B4A00230144C2E900030839103A21F022
:1017C000070111604B600B600B1AC0E900139360B6
:1017D0004FF000405360D06070470000900300203D
:1017E00080000020074C4FF08056074DFFF7A2FF06
:1017F00020680128FAD92E60BFF34F8FBFF36F8F97
:10180000F4E70000AC00002004ED00E02DE9F04713
:10181000DDE909840E4682466FF00301206B01EB7F
:1018200082010844089D20F007079946780705D0F3
:1018300040F22B3218A11FA0FFF78CFD00202218C8
:10184000315C82F83410315C11B1401C1028F6D3A1
:10185000002684F84360202D00D31F25201DE5625B
:1018600000F04DF904F1180000F049F92461C5F1C8
:1018700020006462A061666484F848604A4651466C
:10188000384600F00DF92060B8F1000F01D0C8F81B
:101890000040BDE8F08700002E2E5C352E467265B4
:1018A0006552544F535C7372635C7461736B732E37
:1018B000630000004572726F723A25732C25640D27
:1018C0000A00000030B5114900E011460A68824262
:1018D000FBD34B685C18844203D1406818444860CD
:1018E000084643681C18944209D1084C103C2468EF
:1018F000A24209D052681A4442600A681268026023
:10190000814200D0086030BD0460F9E7800000200B
:101910000648416B096829B1416BC968C9684968C3
:10192000816270474FF0FF31FAE700002800002085
:1019300008484068401C04D0F42207A110A0FFF71B
:1019400009FD502080F31188BFF34F8FBFF36F8FD5
:10195000FEE70000640000202E2E5C352E467265E6
:101960006552544F535C706F72745C525644535CB2
:1019700041524D5F434D335C706F72742E630000B3
:101980004572726F723A25732C25640D0A000000AF
:101990002DE9F0410546002700F026FB324E306865
:1019A00008B9FFF7F9FEF06805424FD1002D4DD080
:1019B000083568070BD005F00700C0F108000544A2
:1019C000680704D0BF2229A131A0FFF7C3FC002D76
:1019D0003CD07068854239D82348103001460C68E5
:1019E00001E020460C466168A94202D22168002924
:1019F000F7D13168B0468C4228D007682168016071
:101A000060680837401B10280ED96619700704D08B
:101A1000EC2216A11EA0FFF79DFC6068401B7060C1
:101A200030466560FFF74EFF6268D8F80410404604
:101A3000891AC8F80410D8F80830994200D2816099
:101A4000D8F80C0002430020C4E9000200F05CFD5D
:101A5000780705D04FF4967204A10DA0FFF77AFC29
:101A60003846BDE8F0810000700000202E2E5C3565
:101A70002E4672656552544F535C706F72745C4DA4
:101A8000656D4D616E675C686561705F342E6300E3
:101A90004572726F723A25732C25640D0A0000009E
:101AA00010B5031F4FF080741C601B1F21F0010153
:101AB0001960191F024B0B60143940380A6010BDC1
:101AC00031190008D0E9013201699A60D0E9012397
:101AD0005A604A68824201D182684A6000220261EB
:101AE0000868401E0860704700F108014FF0FF329F
:101AF000C0E90112C160016100210160704700214D
:101B00000161704730B50B685A1C02D000F1080221
:101B100002E0026904E02246546825689D42FAD931
:101B200053684B6099608A60516008610168491C84
:101B3000016030BD42684A6093688B609368596069
:101B4000916008610168491C01607047502080F372
:101B50001188BFF34F8FBFF36F8F09494868401C4E
:101B6000486001280AD10748006810F0FF0F05D02F
:101B70004FF4BE7204A10EA0FFF7ECBB704700004B
:101B80006400002004ED00E02E2E5C352E467265C8
:101B90006552544F535C706F72745C525644535C80
:101BA00041524D5F434D335C706F72742E63000081
:101BB0004572726F723A25732C25640D0A0000007D
:101BC00010B5084C606828B940F2831206A110A035
:101BD000FFF7C0FB6068401E606001D180F3118890
:101BE00010BD0000640000202E2E5C352E4672656C
:101BF0006552544F535C706F72745C525644535C20
:101C000041524D5F434D335C706F72742E63000020
:101C10004572726F723A25732C25640D0A0000001C
:101C200070B500282AD0164DA0F108046068E96854
:101C3000084205D14FF4A07212A11BA0FFF78AFB46
:101C4000206828B140F241120EA117A0FFF782FBD5
:101C50006168E868014211D02268002A0ED18143F0
:101C6000616000F0C1F960686968084468602046F6
:101C7000FFF728FEBDE8704000F046BC70BD0000D4
:101C8000700000202E2E5C352E4672656552544F32
:101C9000535C706F72745C4D656D4D616E675C680E
:101CA0006561705F342E63004572726F723A2573FE
:101CB0002C25640D0A00000006484FF47A71006874
:101CC000B0FBF1F14FF0E020491E416107210161B5
:101CD000704700000000002010B5FEF759FA104CC4
:101CE00010280CD300F1E02090F8F003217888420E
:101CF00005D240F2AA220BA114A0FFF72BFB174834
:101D00000068A16800F4E060884207D9BDE810408F
:101D100040F2BA2203A10DA0FFF71CBB10BD0000CA
:101D2000640000202E2E5C352E4672656552544F9D
:101D3000535C706F72745C525644535C41524D5FF9
:101D4000434D335C706F72742E6300004572726F86
:101D5000723A25732C25640D0A0000000CED00E09A
:101D600010B5040012D00E48006B28B140F2CE42EC
:101D70000CA113A0FFF7EEFA00F036F9002120467F
:101D8000FFF738FC00F0C0FB002807D110494FF0E6
:101D900080500860BFF34F8FBFF36F8F10BD0000FE
:101DA000280000202E2E5C352E4672656552544F59
:101DB000535C7372635C7461736B732E6300000019
:101DC0004572726F723A25732C25640D0A0000006B
:101DD00004ED00E070B50D46040005D14FF48F62AC
:101DE0001AA121A0FFF7B6FA2DB940F2794217A146
:101DF0001DA0FFF7AFFA204E306B28B140F27A42B7
:101E000012A119A0FFF7A6FA00F0EEF8F268236815
:101E10005919934204D98B420AD9914202D807E05A
:101E20008B42FAD9881A21600021FFF7E3FB00E01A
:101E3000216000F069FB002807D110494FF0805065
:101E40000860BFF34F8FBFF36F8F70BD2E2E5C35D0
:101E50002E4672656552544F535C7372635C7461B5
:101E6000736B732E630000004572726F723A2573B4
:101E70002C25640D0A0000002800002004ED00E07D
:101E800070B50546FFF762FE234C05B92568281D8D
:101E9000FFF718FE58B9E86A204A00EB800152F8B3
:101EA000211021B901218140206988432061A86A5D
:101EB00018B105F11800FFF705FE606A401C60626A
:101EC0002068854207D1291D1548FFF733FE606859
:101ED000401C606007E0A068401EA0602846FFF735
:101EE00051FCFFF715FDFFF76BFE6069002812D06B
:101EF000206885420FD1206B28B140F2644209A1CD
:101F00000FA0FFF727FA12494FF080500860BFF387
:101F10004F8FBFF36F8F70BD28000020AC000020F2
:101F2000680300202E2E5C352E4672656552544F94
:101F3000535C7372635C7461736B732E6300000097
:101F40004572726F723A25732C25640D0A000000E9
:101F500004ED00E01CB515480024CDE900402346FF
:101F6000802213A1144800F0C7F901280AD0401CB0
:101F70001BD102B040F28472BDE810400FA116A040
:101F8000FFF7E8B9502080F31188BFF34F8FBFF3FC
:101F90006F8F06484FF0FF312C388162012141617B
:101FA000C460BDE81C4000F069B81CBD54000020AE
:101FB00049444C4500000000E51700082E2E5C3512
:101FC0002E4672656552544F535C7372635C746144
:101FD000736B732E630000004572726F723A257343
:101FE0002C25640D0A0000000248016B491C0163A6
:101FF000704700002800002070B5134C206B10B112
:102000000120E06170BD0020E06120690F4EB0FA50
:1020100080F0C0F11F0000EB800556F8250028B9BC
:1020200040F6F4220AA111A0FFF794F906EB85000F
:1020300000F10802416849684160914201D1496854
:102040004160C868206070BD28000020AC000020FE
:102050002E2E5C352E4672656552544F535C73725A
:10206000635C7461736B732E630000004572726F62
:10207000723A25732C25640D0A0000001CB519491D
:1020800008780190FF20087008788DF800009DF80E
:102090000000154A00F0500010700720906005E025
:1020A0009DF800305B008DF80030401E9DF8003038
:1020B0001B06F5D4000200F4E060906001980870FF
:1020C0000A48016841F470010160016841F0704103
:1020D0000160FFF7F1FD00205060FEF723F80020BB
:1020E0001CBD000000E400E06400002020ED00E0E2
:1020F00010B5502080F31188BFF34F8FBFF36F8F5F
:1021000000F03AF918B104494FF0805008600020FF
:1021100080F3118810BD000004ED00E070B50E469C
:10212000050005D14FF4C4720DA114A0FFF712F9F8
:1021300096B105FB06F04830FFF72AFC040009D0F1
:1021400004F1480120464EB10160C0E90F5601215B
:1021500000F01CF8204670BD0020ECE70060F4E7BA
:102160002E2E5C352E4672656552544F535C737249
:10217000635C71756575652E630000004572726F52
:10218000723A25732C25640D0A00000070B50D46C7
:10219000040005D140F21B121CA123A0FFF7DAF8BE
:1021A000FFF7D4FCD4E90F20216802FB0011616025
:1021B0000021A1632168A1600A46D4E90F01401EF5
:1021C00000FB0121E16021464FF0FF3001F8440F90
:1021D000487004F110004DB1FFF786FC04F12400B3
:1021E000FFF782FCFFF7ECFC012070BD216900299C
:1021F000F8D000F039F90028F4D00F494FF08050A2
:102200000860BFF34F8FBFF36F8FEBE72E2E5C3567
:102210002E4672656552544F535C7372635C7175E0
:102220006575652E630000004572726F723A257302
:102230002C25640D0A00000004ED00E070B50E4688
:10224000040005D140F23C4220A127A0FFF782F80C
:10225000206C28B14FF488621CA123A0FFF77AF804
:10226000206838B9606828B140F2454217A11EA025
:10227000FFF770F8FFF730FD5020EFF3118580F382
:102280001188BFF34F8FBFF36F8FA16BE06B884254
:1022900018D994F94500491CA163411C04D0401C85
:1022A00084F8450001200EE0606A0028FAD004F1AD
:1022B000240000F0D9F80028F4D0002EF2D001203C
:1022C0003060EFE7002085F3118870BD2E2E5C355D
:1022D0002E4672656552544F535C7372635C717520
:1022E0006575652E630000004572726F723A257342
:1022F0002C25640D0A0000002DE9FF5F8346DDE90F
:102300000E87994616468A469000FFF741FB050066
:102310001AD04C20FFF73CFB040012D025630021AB
:10232000CDE90241CDE900874B4632465146584639
:10233000FFF76CFA2046FFF795F9012004B0BDE8DD
:10234000F09F2846FFF76CFC4FF0FF30F6E70000E7
:102350000548416919B1006B18B100207047012090
:102360007047022070470000280000200148C06824
:1023700070470000280000202DE9F0412D4C002777
:10238000206B40B1A069401CA061E06900B1012749
:102390003846BDE8F081E668761CE66011D1606BD6
:1023A000006828B140F6D81223A12AA0FEF7D2FF78
:1023B000606BA16B6163A063206A401C2062FFF721
:1023C000A7FAA06ADFF89C80864209D3606B006898
:1023D00080B1606BC068C568686886420DD2A06233
:1023E0002068C06A00EB800158F821000128CCD990
:1023F0000127CAE74FF0FF30F1E7281DFFF762FB26
:10240000A86A18B105F11800FFF75CFBE86A012122
:10241000226981401143216100EB800108EB8100BA
:10242000291DFFF787FBE86A2168C96A8842CDD376
:102430000127CBE7280000202E2E5C352E46726542
:102440006552544F535C7372635C7461736B732E8B
:10245000630000004572726F723A25732C25640D7B
:102460000A000000AC0000202DE9F041C068C468FB
:102470002CB940F65F3216A11CA0FEF76BFF04F1E9
:1024800018000746FFF71EFB1C4D286B012660B1A4
:1024900039461B48FFF74EFBE06A2968C96A884243
:1024A00013D90120EE61BDE8F081201DFFF70AFB82
:1024B000E16A2A6906FA01F01043286101EB810004
:1024C000104901EB8000211DE4E70020EBE700004C
:1024D0002E2E5C352E4672656552544F535C7372D6
:1024E000635C7461736B732E630000004572726FDE
:1024F000723A25732C25640D0A0000002800002084
:1025000054030020AC0000202DE9F0472C4C00259E
:102510002E46206B28B94FF4FD622AA130A0FEF7A9
:1025200019FFFFF713FB206B401E2063206BE0BBFD
:10253000A1682F4F0120C1B3A7F52A7980463868DA
:10254000E8B1F868C56805F11800FFF7BBFA281D67
:10255000FFF7B8FAE86A226908FA00F1114321612D
:1025600000EB800109EB8100291DFFF7E3FAE86A1F
:102570002168C96A8842E2D3C4F81C80DFE70DB144
:10258000FFF7C6F9A5694DB14FEA0807FFF7F4FE5A
:1025900000B1E7616D1EF9D10020A061E06920B1B2
:1025A000144901263007086000E003E0BFF34F8FB5
:1025B000BFF36F8FFFF704FB3046BDE8F0870000E4
:1025C000280000202E2E5C352E4672656552544F31
:1025D000535C7372635C7461736B732E63000000F1
:1025E0004572726F723A25732C25640D0A00000043
:1025F0005403002004ED00E018260008000000202D
:10260000AC00000074130008C4260008AC000020D1
:10261000CC4A00008413000800A24A040000000015
:10262000000000000102030406070809020406086E
:102630000000000001020304010203040607080968
:10264000000000000000000000000000000000008A
:10265000000000000000000000000000000000007A
:10266000000000000000000000000000000000006A
:10267000000000000000000000000000000000005A
:10268000AAAAAAAA000000000000000000000000A2
:10269000000000000000000000000000000000003A
:1026A000000000000000000000000000000000002A
:1026B000000000000000000000000000000000001A
:0426C0000000000016
:04000005080000ED02
:00000001FF
